:020000040000FA
:100000000A128A11E22FFF0000308A007F0882075F
:0800100008280A128A110F2FC3
:100DDA00013400348316031308158815080083129A
:100DEA000313080CF000700C0139FB2E0800831263
:100DFA000313080CF000F00C700C0139042F0800E2
:100E0A00F0007008203E8400831300088312031345
:100E1A0086000800831603178901831603138601C7
:100E2A0083120313860108003F3406345B344F34BF
:100E3A0066346D347D3407347F346F3477347C34D0
:100E4A0039345E34793471347E088A007F0882002E
:100E5A000A128A1129270A128A118000840A0408B0
:100E6A007D0603190034FF0A0319FE0A2D2F4B2FA2
:100E7A000130F0020030031CF103F102C730F20026
:100E8A00462FF20B452F492F4A2F4B2F700871041A
:100E9A00031D502F512F3D2F522F0800F501F60147
:100EAA00B830F3000B30F4000A128A110F270A1225
:100EBA008A110A128A11EF260A128A11642F7508FA
:100ECA000A128A1105270A128A110A128A11FC26A5
:100EDA000A128A11013A031D732F742FA72F0130AA
:100EEA00F5070318F60A0030F6076430F000003000
:100EFA00F1000A128A113C270A128A117608803AEE
:100F0A00FF0080307F02031D8C2F0A307502031CFC
:100F1A008F2F902F9B2FF501F6019B2F9B2F750882
:100F2A000A128A1105270A128A119B2F0A128A119C
:100F3A00FC260A128A11013A0319A42FA52F942F0D
:100F4A00A72FA72F0A128A11F4260A128A11013A28
:100F5A00031DB02FB12F642FFF30F5070318F60ACF
:100F6A00FF30F6076430F0000030F1000A128A11EF
:100F7A003C270A128A11F61FC32FC42FD12F09301A
:100F8A00F5000030F600D12FD12F75080A128A1108
:100F9A0005270A128A11D12F0A128A11F4260A1277
:100FAA008A11013A0319DA2FDB2FCA2F642F642F13
:100FBA00642F642F0A128A11002883133030FD002F
:100FCA000730FE001930FF00203084000A128A110F
:100FDA002D270A128A110A128A11ED260A128A117B
:100FEA00F7000A128A11EE260A128A11F800830102
:060FFA000A128A11532FB8
:04400E00D4E0FFFFFC
:00000001FF
